:020000040800F2
:10000000F43700200D2D0008B12C0008BD2C00088D
:10001000C92C0008D52C0008E12C000812BBFEAF4B
:10002000000000000000000000000000912A00080D
:10003000ED2C000800000000292B000855150008D1
:1000400011350008FB340008E5340008CF340008FF
:10005000B9340008A33400088D3400087734000850
:10006000613400084B340008353400081F340008A0
:1000700009340008F3330008DD330008C7330008F3
:10008000B13300089B330008853300086F33000844
:1000900059330008433300082D3300081733000894
:1000A00001330008EB320008D5320008BF320008E7
:1000B000A9320008933200087D3200086732000838
:1000C000513200083B320008253200080F32000888
:1000D000F9310008E3310008CD310008B7310008DC
:1000E000A13100088B310008753100085F3100082C
:1000F00049310008333100081D310008073100087C
:10010000F1300008DB300008C5300008AF300008CF
:1001100099300008833000086D300008573000081F
:10012000413000082B30000815300008FF2F000870
:10013000E92F0008D32F0008BD2F0008A72F0008C3
:10014000912F00087B2F0008652F00084F2F000813
:10015000392F0008232F00080D2F0008F72E000864
:10016000E12E0008CB2E0008B52E00089F2E0008B7
:10017000892E0008732E00085D2E0008472E000807
:10018000312E00081B2E0008052E0008EF2D000858
:10019000D92D0008C32D0008AD2D0008972D0008AB
:1001A00000000000812D000831130008F92C000820
:1001B0007D1100087047A0F10400FBE7704710B5FF
:1001C000102104460BF010FC204610BDA0F10400E5
:1001D000F5E7000010B500228260044AC16002F118
:1001E000080420320460426010BD00BFE0BE000879
:1001F0007047704770477047704700F095B810B56A
:100200009C2104460BF0F0FB204610BD10B50446BF
:1002100000F092F8014B2360204610BD10BF00088B
:1002200000220260704770477047704710B54FF466
:10023000A87104460BF0D8FB204610BD10B504464B
:10024000D0F84C01FFF7EFFF2046BDE8104007F063
:100250007DBF10B50446D0F8340158B10368DB689F
:10026000984738B1D4F8340103689B689847002355
:10027000C4F8343110BD000010B5044600F020F978
:10028000014B2360204610BD44BF000870B51E46D8
:100290000368BDF910505B6B0446984723683146EC
:1002A00020469A6B9047236829462046DB6BBDE8C1
:1002B0007040184781807047C180704770B50368EF
:1002C0000446DB6A154698472368294620461B6B7F
:1002D000BDE8704018470181704741817047704701
:1002E0007047704770477047C38810B4D21A83882C
:1002F0005DF8044BC91A036812B25B6D09B2184766
:100300004FF6FF738381038443841368C3611060D5
:1003100070477047704790F825201AB190F8242054
:1003200002B1186070477047704710B59C210446B1
:100330000BF05AFB204610BD2DE9F043044685B072
:10034000274608F099FE00253D4BE5630DF11008A6
:1003500047F8403B3B4B23644FF6FF7328F8043DBE
:1003600001224FF0FF0904F17006A4F84450A4F8EC
:100370004650A4F84850A4F84A50A4F84C50A4F8A9
:100380004E50A4F85050A4F852506565A565E56537
:1003900084F8645084F86520A56684F86C50A4F84D
:1003A0007450A4F87650A4F87850A4F87A50A4F8C1
:1003B0007C50A4F87E50A4F88050A4F88250C4F871
:1003C0008450C4F88850C4F88C5084F8945084F851
:1003D000669084F895201C4A2267A4F8963084F829
:1003E00098304146304607F0C9FC4FF4F073009353
:1003F0002A464FF4487329463846FFF747FF2A46F6
:100400002946484609F092F82A46A0662946304611
:10041000FFF754FF41463046ADF80C5007F0AEFCF4
:10042000251DCC2384F898303946284606F02EFE48
:100430002846314606F02AFE204605B0BDE8F08386
:1004400080BF00089CD0000808D1000870477047A2
:1004500041607047704770470123037270477047CF
:10046000C2688368406812F0010F4FEA620218BF49
:100470008158104418BFCB58184743682BB1836884
:100480002BB9C06800F00100704718467047012082
:10049000704710B50C2104460BF0A6FA204610BD9B
:1004A00010B54FF4A87104460BF09EFA204610BD1B
:1004B00010B5102104460BF097FA204610BD00003D
:1004C00070B5044616460D4607F09CFF0B4AC4F86B
:1004D000486114600A4A226000230A4AC4F8303195
:1004E000C4F83431C4F83821C4F83C31C4F8403180
:1004F000C4F84431C4F84C51204670BD103000207F
:10050000CCBF0008B4BF0008064BC0F84031002340
:10051000C0F8443100F59C73C0F83C01C0F8343198
:10052000704700BF690600082DE9F047074690684C
:10053000DDF820A0994603681B6A88461446984750
:100540009B2805D8424B434AC221434800F058FA41
:10055000606803681B6A98470F2803D83F4B3D4AE1
:10056000C321F2E7E06803681B6A98470B2803D8A9
:100570003B4B384AC421E8E707F024FF07F028FF87
:10058000D9F8000010B10368DB689847D9F800007B
:1005900010B103681B689847386810B103685B693D
:1005A0009847D8F8000010B103685B68984738682E
:1005B00010B103681B689847D8F8000010B10368B1
:1005C0009B689847E068036800215B6A9847054686
:1005D00020B1002343600372224B0360A0680368CC
:1005E00000215B6A9847064608B1FFF70FFE606876
:1005F000036800215B6A9847044610B13146FFF753
:10060000E9FDC9F80050C8F800403E60ECB1231D78
:10061000CAF80030C4F808A03368F4633046DB68D9
:100620009847236820461B6898472946304608F0BB
:10063000A1FE2B6828461B69984707F0C3FE036894
:100640009B6A98472046BDE8F0872346E0E700BF55
:1006500020C0000827C20008AEC00008E1C00008A2
:1006600084C1000808C0000807B5D0F84C310093D9
:10067000D0F84821044B00F598710448FFF754FF67
:1006800003B05DF804FB00BF0C30002008300020F0
:100690007047000030B5144D2C78BFF35B8F14F019
:1006A000010489B01DD1284600F091F9C8B13F235B
:1006B00006930E4B05930E4B0493042301220D4920
:1006C000019307940A230394029400940A4808F0C3
:1006D00073FE284600F07CF9084A094906480BF0E9
:1006E0007DF9054809B030BDE8080020CCD90008E4
:1006F00048DB000834DB0008F408002080090020F3
:100700009106000830B5144D2C78BFF35B8F14F0C0
:10071000010489B01DD1284600F059F9C8B13F2322
:1007200006930E4B05930E4B0493042301220D49AF
:100730000193079414230394029400940A4808F048
:100740003BFE284600F044F9084A094906480BF0E8
:1007500045F9054809B030BDEC08002044DB00082D
:10076000E8DA000870DB0008140900208009002086
:100770009106000830B5144D2C78BFF35B8F14F050
:10078000010489B01DD1284600F021F9C8B13F23EA
:1007900006930E4B05930E4B0493042301220D493F
:1007A0000193079428230394029400940A4808F0C4
:1007B00003FE284600F00CF9084A094906480BF0E8
:1007C0000DF9054809B030BDF008002030DB000805
:1007D000D0D9000860DB000834090020800900201F
:1007E0009106000810B5202104460BF0FDF82046C4
:1007F00010BD7047012906D003D3022905D000207F
:100800007047FFF77FBFFFF7B5BFFFF743BF10B5D6
:10081000042104460BF0E8F8204610BD004870475C
:1008200040C30008012070470048704780DB000883
:1008300001207047004870475409002010B5FFF7A9
:1008400061FF044C2060FFF795FF6060FFF722FF17
:10085000A06010BD5409002038B50A4B18800A4B1F
:1008600000221A60FFF7E0FF0546FFF7E3FF0446AA
:10087000FFF7DEFF054B1D60054B1C60054B188024
:1008800038BD00BF7009002074090020143000201A
:100890001C30002018300020014B00221A607047E5
:1008A0007409002008B50146034B00B10121186806
:1008B00007F0F2F8012008BDB42F0020032208B58C
:1008C0000021012001F0DDFA074A106020B1002369
:1008D0001A46194601F0F6FA01210022084601F0F5
:1008E000D0FA024B186008BD780900207C0900206E
:1008F000034800234FF0FF321946006801F0A8BBFF
:1009000078090020034800231A461946006801F0C0
:10091000D9BA00BF78090020034800231A461946B7
:10092000006801F095BB00BF7809002007B50948B1
:1009300002AA002342F8043D1946006801F041FB79
:10094000019B1BB1044B4FF080521A6003B05DF85D
:1009500004FB00BF7809002004ED00E007B5094B57
:10096000186860B102AA002342F8043D064901F06C
:1009700028FB019B1BB1054B4FF080521A6003B05E
:100980005DF804FB7C0900200800002004ED00E075
:1009900070B5084D084C00231A462946206801F01E
:1009A00057FB2946206800234FF0FF32BDE8704016
:1009B00001F04EBB080000207C090020FEE7FEE7A6
:1009C0000149002001F046BEA508000870477047A5
:1009D0007047FEE7084910F0030318BFC3F1040392
:1009E0000A6818BFC0181318044883423ABF10465B
:1009F0000B604FF0FF3070470C000020EC330020FC
:100A0000FEE70000024B18680368DB68184700BF68
:100A1000B42F00201FB500F0ABFD01F067F80023F4
:100A2000032203930293019300920449044840F285
:100A3000B63201F0C5FB01F0A9FCFEE754C3000883
:100A4000050A0008704738B5044602F007FF05465E
:100A500002F00AFF81B2A8B203F05CFA08B90123E0
:100A6000237138BD10B5082104460AF0BDFF2046A9
:100A700010BD7FB504790E4615465CB101A803F0A0
:100A800075FA9DF8043043B1BDF806303360BDF807
:100A90000A302B60204604B070BD1C46FAE703689C
:100AA0001B6C184703685B6A184770477047000063
:100AB000034A044B13601A6842F400721A607047CC
:100AC0008409002000B00240034B1B78002B40F249
:100AD000EF1018BF00207047C40900202DE9F8432B
:100AE000414BB1F80C801B68CF8998680E7E036873
:100AF0001B6A0D46984710282A7E6B6971D103F056
:100B00001F041F21C4EB042494FBF1F444EA0262A5
:100B1000C3F3C424C4EB0424C3F3451394FBF1F4DE
:100B200042EA0444C3EB03233F2293FBF2F344EA7B
:100B30000322DFF8C0E02D4C4FF0806CCEF888C067
:100B4000022384F8393023684FF00009C3F800907D
:100B500023683F219960C3F81090C3F81890C3F838
:100B60001C90C3F82490C3F83490A968D960204938
:100B7000C3F8109041EA066122F07F4207EB084774
:100B8000D9611A625F64AA685A616A8A1028A2EB66
:100B900008029A610CBF022101214FF07F4292FAB4
:100BA000A2F2B2FA82F2D2B296400E435E625A6963
:100BB000DA639A691A645A6A5A63CEF808C01A68E6
:100BC00022F4403242F400321A602268136843F47F
:100BD0000C5313602268136843F001031360BDE8EF
:100BE000F88343EA0262A4E7B42F002084090020BE
:100BF0000900010000E100E010B540F6A82104461C
:100C00000AF0F2FE204610BD2DE9F3470E68042ECF
:100C100080460C4600F0A080202E00F09D80A6F1BA
:100C2000400257425741802E00F09880A6F580730D
:100C30005E425E415B4B1B68986803681B6A98477D
:100C40002368402B824600F09D8000F28980042BAF
:100C500000F09180202B00F09580BAF1100F0CBFAE
:100C60004FF002094FF001090025E389A8F8A43AE2
:100C7000DFF838814C4B4FF08062C3F88820404643
:100C800003F04FFEA289638AC8F8045045469B1AB8
:100C9000EB60C5F82C90238AA289BAF1100FA3EB60
:100CA00002030CBF4FF002084FF00108AB62284668
:100CB000C5F8088003F006FE0FB9002E35D0237E5C
:100CC000FF2B1FBF02232B63237E6B6304BF002314
:100CD0002B6306B3BAF1100F207E636958D103F07D
:100CE0001F024FF01F0EC3F3C421C2EB022292FB7E
:100CF000FEF242EA0062C1EB0121C3F3451391FB0E
:100D0000FEF142EA0142C3EB03233F2193FBF1F3DF
:100D100042EA03236B63638AA2892448C5F81C80D6
:100D20009B1AAB61002103F06DFE01211F4803F007
:100D300069FE1D4B4FF080629A60E289A38907B972
:100D40004EB30093A3680192616818481A4603F0F5
:100D500025FE02B0BDE8F087012767E7012669E7B5
:100D6000802B12D0B3F5807F7FF477AF4FF0090965
:100D70004FF4003579E710280CBF4FF002094FF00F
:100D80000109F5E74FF00009F2E74FF00A09EFE734
:100D900043EA0063BEE700926168A268034803F07B
:100DA000CEFDD6E7B42F002000E100E0840900204A
:100DB0002DE9F041374B1B680646986803680C46DE
:100DC0001B6A8AB09847E389A6F8A43A23681028DA
:100DD0000CBF4FF002084FF00108082B07460ED158
:100DE0000FCC03AD0FC594E80700336885E8070012
:100DF0005B6C03A9304698470AB0BDE8F081264DE8
:100E0000264B4FF08062C3F88820284603F089FD06
:100E10004FF44033A2896B60638AC5F82C809B1A1B
:100E2000EB600023AB62102FC5F808806369217E58
:100E30002DD103F01F02C2EB02221F2092FBF0F51E
:100E4000C3F3C42245EA0165C2EB0222C3F3451392
:100E500092FBF0F245EA0245C3EB03233F2293FBEA
:100E6000F2F345EA032501210B4803F0CBFD0B4BC0
:100E700009484FF080629A6003F024FDE2890092F5
:100E8000A389A2680448294603F059FDB4E743EA60
:100E90000165E8E7B42F00208409002000E100E0AC
:100EA00070B5044626460C3000250F4B6060257255
:100EB000657246F8203B6022314606F017FF04F5C4
:100EC0002A6275611C36B242FBD194F8A72AC4F895
:100ED000A05A65F30002A4F8A45A84F8A65A84F82C
:100EE000A72A204670BD00BF7CC30008012380F8FC
:100EF000641080F865307047406803681B681847C5
:100F000000207047436B0BB10846184770474FF6F7
:100F1000FF707047014B1868704700BFC809002078
:100F2000034B702283F85A2383F85C23704700BF79
:100F300000E100E0044B4FF08062C3F888204FF0DE
:100F40008052C3F88820704700E100E0034B4FF067
:100F500080629A604FF080529A60704700E100E032
:100F60007047000008B531B90A4B0B4A0B484FF4E3
:100F70004371FFF745FD8163C26309490364003291
:100F800018BF01220A700033064A18BF01231370EC
:100F900008BD00BFE1C3000848C5000819C4000827
:100FA000B22F0020B32F002008B500F05BFC0A4BE5
:100FB0001B680222C3F810240122C3F81024D3F8BE
:100FC000082442F00102C3F80824D3F8082442F0B0
:100FD0000202C3F8082408BD24310020024B00227D
:100FE0001A7006F0A3B900BF1000002010B5044627
:100FF00006F0A8F994F8473013B1024B01221A7099
:1010000010BD00BF1000002010B5044606F02AFDF8
:1010100023682046D3F88430BDE81040184710B547
:10102000682104460AF0E0FC204610BD30B590F877
:10103000642090F830309A420F4B1A780DD05AB98C
:101040000E4A0F490F4814880F4D0C8001881180FB
:101050002980048001221A7030BD002AFCD0094882
:10106000074A01881180054A074D14882C80118099
:1010700004800022EFE700BFAC2F0020A82F002043
:10108000AE2F0020AA2F0020B02F00200D4B1B7880
:10109000B3B10D4B0D481B68D3F8042422F00802AD
:1010A000C3F804240A4A9162426A42F00102426291
:1010B000084A1160D3F8042442F00802C3F804245B
:1010C000704700BFD0090020243100200068014093
:1010D00084680140C8090020F8B51C4C9DF81850E0
:1010E00023701B4C21601B4C2280541EA6B21F2E65
:1010F00009D80124B44014F0803F174F174E09D18E
:1011000014F00B0F17D1164B164A17484FF43971CC
:10111000FFF776FC3F883488D2087C4362438163C2
:101120007BB11144C16375B1114401640F4A13705E
:101130000F4B1D70F8BD3C8862430732D2103488D3
:10114000ECE7C363EFE70564F0E700BFD0090020D8
:10115000C8090020D2090020A82F0020AA2F0020B3
:10116000C4C30008F4C4000819C40008B22F00204A
:10117000B32F002003689B691847000070B5604DCD
:101180002B68D3F80C24D10732D501225D4CC3F86B
:101190001024002000F03EFD226892F85630013302
:1011A00082F85630FFF7DAFB574B58491B781BB9CA
:1011B0002268002A40F098800A78002A00F098807F
:1011C000534E3178002940F093801BB120680028ED
:1011D00040F092804F4B002018604F4B1B88182B1B
:1011E00038D100F06FFB464804F0DFFE0123337076
:1011F0002B68D3F80C24920740F181800222C3F8B7
:101200001024454B434D1B88444C4549454A182BF7
:1012100043D12B680BBBD4F8043423F00803C4F883
:101220000434414B09681B885B0803EB43030B4400
:1012300093623E4B01265E6200F056FBD4F8043404
:1012400043F00803C4F804342E602D48BDE8704014
:1012500004F0ABBE00F022FBC5E7D4F8043423F061
:101260000803C4F804340B689362304B01225A62BD
:1012700000F028FBD4F8043443F00803C4F8043425
:10128000002000F0D7FC224B00221A701D4B18687A
:10129000002834D0FFF76EFF70BD28680130286049
:1012A000D4F80434032823F00803C4F8043412DC0F
:1012B0001D4B09681B885B0800FB031393621B4BE3
:1012C00001225A6200F0EAFAD4F8043443F0080329
:1012D000C4F80434B9E70B689362144B01225A62D4
:1012E000002000F0DBFAC5E7087882F8460063E7E3
:1012F000002000F09FFC7BE706F0B4FB6AE770BDBE
:1013000024310020B42F0020D0090020100000203C
:10131000D4090020CC090020D2090020006C014033
:10132000C809002084680140AE2F002000680140F9
:10133000064B5A68920707D502229A60044B1B6835
:10134000586803685B691847704700BF00B00240E7
:10135000B42F00204068704741607047054A136809
:1013600043F080731360044A136843F00103136071
:10137000704700BFFCED00E0001000E0521A02EBE5
:101380005302B2FBF3F07047014B1868704700BF7F
:10139000041000E0704710B50C2104460AF024FB4D
:1013A000204610BD10B5036804461B6931B198474B
:1013B000A26863689B1A1844606010BD9847A060DB
:1013C00010BD70477047000008B500F02EF8024BC2
:1013D00000221A6008BD00BFD5090020F8B50F46ED
:1013E00000F027F80C4A937855781478D370C6B279
:1013F00013F001009570547016700BD015F00100B9
:1014000008D014F0010005D0F30702D40120387091
:10141000F8BD0020F8BD00BFD509002010B504219B
:1014200004460AF0E1FA204610BD0021084602F009
:1014300059B9002002F090B97047012070470C2084
:1014400070470C2303FB0100083070470C2303FB9B
:10145000010008307047012070479C2070479C2392
:1014600003FB0100083070479C2303FB0100083098
:101470007047012070471020704700EB01100830C2
:10148000704700EB0110083070470846FFF73CB882
:1014900010B5034B0360044605F04CFD204610BD1B
:1014A0004CC6000810B50446FFF7F2FF2046142191
:1014B0000AF09AFA204610BD10B5034B03600446AB
:1014C00005F038FD204610BD18C6000810B50446CA
:1014D000FFF7F2FF2046A4210AF086FA204610BD4D
:1014E00010B5034B0360044605F024FD204610BDF3
:1014F000E4C5000810B50446FFF7F2FF20461821A6
:101500000AF072FA204610BD10B5084B044640F8A8
:10151000D03BFFF7BDFF04F12C00FFF7CDFF04F136
:101520001400FFF7DDFF204610BD00BF80C6000895
:1015300010B50446FFF7E8FF20464FF40E710AF09D
:1015400053FA204610BD10B5042104460AF04CFAA7
:10155000204610BD08B503F063F8044B1B781BB19F
:10156000BDE8084001F008BB08BD00BFF01700202F
:101570002DE9F04FDFF8E8929BB003F037F8D9F887
:10158000403043F08053C9F84030D9F8403003F080
:1015900080530693A64B1A6842F440421A601B68B7
:1015A00003F4404307934FF4800314934FF4B47350
:1015B000169307234FF0010A4FF0020818930825ED
:1015C00006230DA8CDF834A0CDF838A0CDF84C8076
:1015D000CDF85C801993159505F060F900B1FEE730
:1015E00004F07AFD00B1FEE70F2308930A904FF450
:1015F000A0534FF48056052108A8CDF824800B9302
:101600000C9604F0B5FD044600B1FEE702F044FC80
:10161000D9F83030874F43F48053C9F83030D9F8C7
:10162000303003F48053059302F07EFA02F0F6F9AD
:101630005B2003F063F802F0E1F802F03BF97E482A
:1016400040F27713036103230393C361056084624F
:1016500004F000FF794A3A60384604F08EFB78497E
:10166000C7F80CA04FF0040B7D22384681E8040136
:101670008C60C7F808B004F0D7FA7249724D0C605C
:10168000C8228A60384610224C618C61CC61CA60E5
:101690000C610C624C62C1F828A04C6004F09CFB09
:1016A0004FF40061E9604FF4005169614FF48041EB
:1016B000A9614FF48031E9614FF4003129624FF4A0
:1016C00080212E616962614E4FF480704FF4007288
:1016D0004FF4002185E80500A9624FF48062294695
:1016E0003846AA60029204F0FDFB304603F033FF57
:1016F0004FF4F171B162CA21716240F2E3113163BA
:10170000CB21F162304652493160C6F814A0C6F8C8
:1017100018A0C6F81C80C6F8208086F8344086F8E9
:10172000354086F836407460B460F460346103F08C
:1017300093FE384604F022FC5146404602F004FD78
:10174000294638462C606C60AC60EC602C616C61A2
:10175000AC61EC612C626C62AC6204F0C3FB594674
:10176000384604F0F7FBD9F830103A4841F40071DC
:10177000C9F83010D9F83010039B109301F40071B0
:101780000D2308910DA91193CDF834B0CDF8388010
:101790000F9403F0A7F9384604F007FC0D940F945A
:1017A00002F062F84FF040431693FF23129310901B
:1017B00013948DF864408DF865408DF8664002F012
:1017C00053F8189002F04AF80523029A15938008FE
:1017D00014920E90CDF8448002F040F88008224622
:1017E0000DA91790304603F0C2FE204602F042F8E1
:1017F000194B01932A23009321465B463922384630
:1018000004F012FC154B01932B232146009339223F
:101810005B46384604F008FC02F020F822460146F8
:10182000304603F0CDFE00F015FA1BB0BDE8F08F96
:101830000070004024310020E40C0020006C0140C6
:10184000E4170020840C0020B00C00207C30002025
:1018500000680140002402402600002036000020DD
:101860000038024037B50B4A0B4C02231525137084
:10187000557001924422009200213922204604F042
:10188000D3FB0021009135232A46204604F09FFB1C
:1018900003B030BDE11700202431002007B5074B0D
:1018A00003EB80002A2301900093392204230021B6
:1018B000034804F0B9FB03B05DF804FB26000020E8
:1018C0002431002007B5064B01932A2300933922C7
:1018D00004230021034804F0A7FB03B05DF804FBD8
:1018E0001E0000202431002007B5064B01932A2357
:1018F0000093392204230021034804F095FB03B030
:101900005DF804FB22000020243100202DE9F7437C
:10191000614E3578BFF35B8F15F00105804689462F
:1019200017461C4656D13046FFF751F8002851D0D3
:10193000A3B25A4CBDF82800C4F80480012284F8F0
:10194000452084F8462084F8542084F85720544ACF
:10195000C4F80890E7602561656125836583A583E8
:10196000E58325846584A58484F82650A562A58531
:101970006563A563E563256484F8445084F8555095
:1019800084F8565084F8585084F8595084F85A50C6
:1019900084F85B5084F85C5025661460414A84F8F2
:1019A00065501380404A1080404A1570404A834277
:1019B0001380404AACBF00230123108084F83030EC
:1019C00030463D4B2360FFF703F83C4A3C49204634
:1019D0000AF004F831483B4F05F054FEFEF71EFFB5
:1019E0000446FEF71FFF0D9B009301460C9B0B9ACC
:1019F000204607F089FE344B344A1A600020FEF777
:101A00002BFF334807F0EAFD3B78BFF35B8FDB0722
:101A100038D43846FEF7DBFF002833D02D4E2E4B4E
:101A2000336006F1E40806F1140006F12C0506F116
:101A3000D0047060B560F460C6F8108005F07CFAE0
:101A4000264B7361284605F077FA254BF362204652
:101A500005F072FA234BC6F8D030324606F50D7108
:101A60004046FEF709FC06F50D70FEF7D9FB40462F
:101A7000FEF74AFD3846FEF7ABFF104A1A493046DA
:101A800009F0ACFF06F09EFC0146044805F03CFD61
:101A9000024803B0BDE8F083DC090020E009002023
:101AA000B42F0020A82F0020AA2F0020AC2F002048
:101AB000AE2F0020B02F002054C400088009002061
:101AC000610F0008480A002020300020E0170020A5
:101AD000140000204C0A002080C60008E4C500085D
:101AE00018C600084CC6000809150008F0B585B0F6
:101AF00000254FF4F0730395029501950093144A65
:101B0000144915484FF44873FFF700FF134B0126A3
:101B10001E70134B1A880368009604465F6F4FF0DF
:101B200040412B46B8470F4B84F85850636184F806
:101B3000465002230C4D84F85430282384F8453055
:101B40002846FFF70BFC256184F85C6005B0F0BD0A
:101B5000200D002018000020280D0020F017002084
:101B60001C000020D0170020D417002038B5194CD5
:101B7000194D1A491A48224609F030FF2846FFF746
:101B80008FF922461749284609F028FF1648174BB7
:101B90001749036000252246057109F01FFF15480B
:101BA000154B4560224685601449154D036009F0C8
:101BB00015FF22461349144809F010FF134B2B6000
:101BC0002846FFF701FC224628461149BDE8384067
:101BD00009F004BF80090020280D0020F307000849
:101BE00014000020AD0A0008200D002064C3000886
:101BF000450A0008D4170020A0C500089513000866
:101C0000D01700203914000818000020C8C50008AB
:101C1000C5130008064A0121115408B901F052BD4C
:101C20000128FBD00228F9D00328F7D0704700BF65
:101C3000F1170020064A0021115408B901F032BD05
:101C40000128FBD00228F9D00328F7D0704700BF45
:101C5000F117002008B5002001F0D6FC012001F0AA
:101C6000D3FC022001F0D0FC032001F0CDFC0020C9
:101C7000FFF7E0FF0120FFF7DDFF0220FFF7DAFFAB
:101C80000320BDE80840FFF7D5BF0000034B1B5CF5
:101C90000BB1FFF7CFBFFFF7BDBF00BFF1170020AB
:101CA00000F1080343604FF0FF32C360036100237B
:101CB00082600360704700230361704743684B6094
:101CC0009A688A609A685160996008610368013374
:101CD000036070470A68531C30B50AD103695A681B
:101CE0004A6091608B60596008610368013303604A
:101CF00030BD00F108035C682568AA42EFD3234693
:101D0000F9E7436882689A60836842685A600369A9
:101D10005A68904204BF82685A60002202611868C3
:101D200001381860704738B51546026C04464AB948
:101D300005681DB9406800F0E1FD6560A36B0133E3
:101D4000A36338BD65B9806809F08AFEA368226C78
:101D500013446268A3609342F0D32368A360EDE765
:101D6000C06809F07DFE236CE26821685B421A447A
:101D70008A42E2603EBF62689B18E360022DDDD1BB
:101D8000A36B002BDAD0A36B013BA363D6E703461A
:101D900030B41C6808465CB1D9681A6C5D6811449F
:101DA000A942D96028BFDC60D96830BC09F058BEB0
:101DB00030BC704738B5044600F09AFE04F12405A3
:101DC000A36C002B12DC4FF0FF33A36400F0A2FEE3
:101DD00000F08EFE04F11005636C002B13DC4FF055
:101DE000FF336364BDE8384000F094BE636A002BA3
:101DF000E9D0284600F0CAFC08B100F03FFDA36C12
:101E0000013BA364DCE72369002BE8D0284600F0FF
:101E1000BDFC08B100F032FD636C013B6364DBE79D
:101E200038B50D46044610B900F04CFEFEE700F050
:101E30005FFE206CE36B2268A2604343D1181B1A3B
:101E400013446160E36000214FF0FF33A1636364DA
:101E5000A3646DB923693BB104F1100000F096FC56
:101E6000012801D100F022FE00F054FE012038BD0F
:101E700004F11000FFF714FF04F12400FFF710FF36
:101E8000F2E7F8B50E461746054670B1502000F04F
:101E900059FD044648B106FB05F0013000F052FD43
:101EA000206028B9204600F0ABFD00F00BFEFEE7F5
:101EB000E563266401212046FFF7B2FF84F84D70E8
:101EC0002046F8BD2DE9F04385B0894601921F46B2
:101ED000044610B900F0F6FDFEE7002965D1036C59
:101EE000002B62D000F0EEFDFEE7019D1DB900F071
:101EF00011FE00204AE016B902A800F081FC00F0B3
:101F000009FE00F06DFA00F0F3FD636C013308BFC9
:101F1000C4F84480A36C013308BFC4F8488000F0C3
:101F2000F9FD01A902A800F07BFCC0BB00F0E0FDB8
:101F3000A66BE56B00F0EEFDAE422AD1019904F1EB
:101F4000100000F0FDFB2046FFF734FF00F0E6FA3A
:101F500008B900F0ABFD012600F0CAFDA26BE36BEF
:101F60009A4201D3022FC0D13A4649462046FFF794
:101F7000DAFE636A3BB104F1240000F007FC01289B
:101F800001D100F093FD00F0C5FD012005B0BDE8D2
:101F9000F0832046FFF70EFF00F0C0FADBE7204693
:101FA000FFF708FF00F0BAFAA3E7022F02D1E36BB4
:101FB000012B03D100264FF00008CDE700F082FD91
:101FC000FEE72DE9F0410E4690461D46044610B945
:101FD00000F078FDFEE7D9B9036CCBB100F072FDDB
:101FE000FEE704F1240000F0D1FB60B3B8F1000F6C
:101FF00029D00124C8F80040384600F087FD20466B
:10200000BDE8F081A36C0133A3641CE00024F3E776
:10201000022D02D1E36B012B17D100F027FE00F057
:1020200051FDA26BE36B9A42074601D3022DEDD11D
:102030002A4631462046FFF776FEA36C0133E1D1F4
:10204000636A002BCDD10124D6E700F03BFDFEE70B
:102050002DE9F04385B00E4601929946044610B929
:1020600000F030FDFEE711B9036C002B7CD1002796
:102070004FF0000800F03CFDA36B53B331462046FF
:10208000E568FFF784FEB9F1000F17D1A36B013BA0
:10209000A363236813B900F0F7FB606023693BB1C9
:1020A00004F1100000F072FB012801D100F0FEFCE9
:1020B00000F030FD012005B0BDE8F083636AE56003
:1020C000002BF5D004F1240000F060FB0028EFD0D5
:1020D000ECE7019D1DB900F01DFD0020EBE717B9ED
:1020E00002A800F08DFB00F015FD00F079F900F07A
:1020F000FFFC636C013308BFC4F84480A36C013358
:1021000008BFC4F8488000F005FD01A902A800F04E
:1021100087FB18BB00F0ECFCA56B00F0FBFCBDB925
:10212000236833B900F0E4FC606800F0B3FB00F012
:10213000F1FC019904F1240000F002FB2046FFF7B6
:1021400039FE00F0EBF908B900F0B0FC012791E787
:102150002046FFF72FFE00F0E1F9F7E72046FFF7F2
:1021600029FE00F0DBF9B8E700F0ACFCFEE7000068
:1021700010B50E4B1A6850600D4A12689042044622
:1021800007D20C4A10681968BDE810400431FFF707
:10219000A1BD094A106819680431FFF79BFD074B80
:1021A0001A68944238BF1C6010BD00BFF8170020A9
:1021B000EC18002000180020FC1700203C00002034
:1021C0002DE9F84F0AAE0F4615469A4696E84009A3
:1021D000814610B900F076FCFEE7042E02D900F02B
:1021E00071FCFEE7502000F0ADFB044670B1BBF17E
:1021F000000F03D1A80000F0A5FB8346C4F830B05F
:10220000BBF1000F06D1204600F0FAFB4FF0FF3083
:10221000BDE8F88FAD002A46A521584609F0BAFC62
:10222000236B043D1D4425F007057B1E04F1340299
:10223000093793F9011002F8011B13F9011F09B1C5
:102240009F42F6D14FF0000B271D384684F83DB071
:10225000E662A664FFF72FFD04F11800FFF72BFDDF
:10226000C6F105032461A3616462C4F84CB0524610
:102270004946284600F0FAFB2060B8F1000F01D073
:10228000C8F8004000F034FC2F4B304D1A68DFF8DE
:10229000F08001321A602A68002A4BD12C601B683A
:1022A000012B27D12A48DFF8DCA0DFF8DC90FFF70C
:1022B000F7FC2848FFF7F4FC2748FFF7F1FC274814
:1022C000FFF7EEFC2648FFF7EBFC5046FFF7E8FC73
:1022D0004846FFF7E5FC2348FFF7E2FC2248FFF7FA
:1022E000DFFC2248FFF7DCFC214BC3F800A0214BA8
:1022F000C3F80090204A1368013313601F4A236417
:102300001168E36A8B4288BF1360114A142000FBF6
:1023100003203946FFF7D2FC00F0FCFBD8F8003070
:102320002BB12B68DB6A9E4201D900F0BFFB012074
:10233000BDE8F88FD8F80030002BDBD12B68DB6AC2
:102340009E4228BF2C60D5E768180020F8170020AF
:1023500004180020181800202C1800204018002015
:1023600054180020AC180020D8180020C4180020F1
:10237000FC17002000180020741800207C18002092
:10238000C0180020801800209418002030B585B0B7
:1023900000240394029401940094234640220C49A3
:1023A0000C48FFF70DFF012805460AD100F08AFB13
:1023B000094B1D60094B1C6005B0BDE8304000F0C2
:1023C00001BC10B900F07EFBFEE705B030BD00BFD8
:1023D000A0C60008ED250008C0180020EC18002059
:1023E000024A136801331360704700BF7018002061
:1023F0002DE9F84F3E4B1B68002B41D13D4B1A682D
:1024000001321A601D68002D44D13B4B1A681268D6
:1024100012B100F057FBFEE7384A196810681860DF
:10242000116037490A6801320A601A681168354A32
:1024300069B31B68DB68DB685B682AE006F1040AA5
:102440005046FFF75EFCB16A19B106F11800FFF7BC
:1024500058FCF06AD9F800102B4B88424FF0140258
:1024600088BFC9F80000514602FB0030FFF726FC88
:102470003868F16AC26A914228BF4FF0010B14E03C
:10248000224A1368013313604FF0000B27E04FF02E
:10249000FF3313601B4C1E4F23689D424FF0000B0F
:1024A00013D3DFF85480DFF87090D8F8002012685A
:1024B0001AB94FF0FF32226007E0D8F80020D26846
:1024C000D66871688D42B9D221603A680E4BD16AE4
:1024D00014224A439A58022A28BF4FF0010B0D4A92
:1024E0001268002A18BF4FF0010B5846BDE8F88F5C
:1024F00070180020EC180020FC17002000180020A5
:10250000A81800203C000020041800206C180020AF
:10251000F8170020F01800207C1800202DE9F04169
:102520002A4C236813B900F0CDFAFEE700F0E0FA78
:102530002368013B236023682BB1002400F0EAFAF2
:102540002046BDE8F081224B1B68002BF5D0214DC1
:10255000214E1DE0EB68DC68271D04F11800FFF731
:10256000D0FB3846FFF7CDFBE36A32681420934274
:1025700000FB0380394688BF3360FFF79FFB174B92
:10258000E26A1B68DB6A9A4204D3154B01221A6087
:10259000DFF854802B68002BDCD1124C23688BB9F8
:1025A0000F4B1C68012CC8D100F080FAC6E7FFF77A
:1025B0001FFF00B12E602368013B23602368002BBE
:1025C000F5D1EDE7064D0126F8E700BF70180020B1
:1025D00068180020AC1800207C180020F817002094
:1025E000F01800206C1800200418002008B5154EC3
:1025F000154C236843B9154B1B68012B01D900F01A
:1026000055FAFEF7DDF9F3E7FFF7EAFE3568FFF765
:1026100085FF002DEDD000F06BFAF368DD68281D12
:10262000FFF76FFB0A4A1368013B13602368013B05
:10263000236000F06FFA286B00F0E2F9284600F002
:10264000DFF9D6E7D81800207818002004180020F9
:102650006818002038B50D4640B9054B1C6800F0DD
:1026600047FAE564BDE8384000F054BA0446F6E79E
:10267000F817002008B9044B1868C36C0BB1084662
:1026800018471846704700BFF817002070B5264B52
:102690001A68264B12B101221A6070BD244C1A60D0
:1026A00020680121FFF7E6FF2268236812681B6B90
:1026B0009A4204D8206821683431FEF77FF92368F4
:1026C0001C49186B142209F09BF920B1206821687D
:1026D0003431FEF773F9184A18491423164608686E
:1026E00058431058B8B109684B43D01808334568AF
:1026F0006D68456013449D4204BF6B6843601423BA
:1027000003FB01614B68DB68236020680021BDE8A2
:102710007040FFF7AFBF086810B900F0D3F9FEE7CB
:10272000086801380860DAE770180020F018002007
:10273000F81700208CC60008041800207C18002020
:1027400038B50D4610B900F0BDF9FEE70C4C216814
:102750001831FFF7BFFA20680430FFF7D2FA6B1C7C
:1027600006D1216807480431BDE83840FFF7A6BA12
:10277000054B18682844BDE83840FFF7F9BC00BF96
:10278000F8170020C4180020EC18002038B5C368E2
:10279000DC6814B900F096F9FEE704F11805284644
:1027A000FFF7AFFA104B1B68DBB9251D2846FFF772
:1027B000A8FA0E4AE36A11688B4288BF13600C4A7C
:1027C0001420294600FB0320FFF778FA094BE26A40
:1027D0001B68DB6A9A4223BF074B01201860002068
:1027E00038BD29460548EFE7701800207C18002006
:1027F00004180020F8170020F0180020AC18002062
:1028000008B510B900F05EF9FEE7034B1B680360E2
:10281000024B1B68436008BDA8180020EC1800207C
:1028200038B50D46044610B900F04CF9FEE711B971
:1028300000F048F9FEE700F05BF90E4B19682B68D1
:102840005A1C10D00C4A206812689042626801D06D
:1028500091420DD2881A83420AD95B1A13442B6025
:102860002046FFF7CDFF002400F054F9204638BD84
:102870000124F9E7EC180020A8180020014B0122E0
:102880001A607047F0180020014B1868704700BFAD
:10289000F8170020F8B5044640B3154DC36A2A68FE
:1028A000D26A934222D22A68124ED26AC2F105023B
:1028B0008261142202FB036342699A4213D1071D0D
:1028C0003846FFF71EFA2B680B4ADB6A1168E36291
:1028D0008B4200D913601420394600FB0360BDE829
:1028E000F840FFF7EBB92B68DB6AC362F8BD00BFA5
:1028F000F8170020041800207C18002038B5044682
:10290000D0B1C26A836C9A4216D0051D2846FFF7E3
:10291000F8F9A36CE362C3F10502A261074A1168EA
:102920008B4288BF1360064A1420294600FB03200F
:10293000BDE83840FFF7C2B938BD00BF7C180020A1
:102940000418002070B50446FFF74AFD27480168C7
:1029500071B9274B274A23F0070313605160264AB9
:1029600041F2745582E8220083E8240001230360C9
:102970002CB1083463071CBF24F007040834621E1E
:1029800041F272539A4207D81A4A136859688C4226
:1029900004D819498B4207D100251EE01968002987
:1029A000F7D01A460B46F1E71968156811605968A7
:1029B000091B102905F108050AD91A1951605C6034
:1029C00056680C4908684468A6420DD810600A6031
:1029D0000A495B680A68D21A0A60FFF79FFD0DB9C1
:1029E000FDF7EDFF284670BD0146EBE7782E00208D
:1029F000FC1800207C2E0020702E002040000020BB
:102A000038B50446C8B1A0F10805FFF7E9FC54F851
:102A1000040C0A4B1A68516888420CD844F8082CF8
:102A2000074A1D6054F8043C11680B441360BDE86C
:102A30003840FFF773BD1346ECE738BD7C2E00200D
:102A40004000002003480068006880F3088862B6F0
:102A500000DF00BF08ED00E0DFF80C00016841F482
:102A6000700101607047000088ED00E04FF0807356
:102A700000E90A00054B40F80C3C6FF0020340F8F7
:102A8000202C40F8243C4438704700BFD52A000869
:102A9000054B19680868B0E8F04F80F309884FF0DB
:102AA000000080F311887047F8170020044B4FF0A6
:102AB00080521A60BFF34F8FBFF36F8F704700BF14
:102AC00004ED00E0EFF311804FF4A07181F3118861
:102AD0007047002008B5054B1B68013302D0FFF793
:102AE000F1FFFEE7FFF7EEFFFEE700BF4400002026
:102AF00008B5FFF7E7FF044A136801331360BFF31B
:102B00004F8FBFF36F8F08BD4400002080F3118802
:102B100070470000034B18680138186008B9FFF7C8
:102B2000F5BF704744000020EFF30980114B1A688D
:102B30001EF0100F08BF20ED108A20E9F04F106042
:102B40004DF8043D4FF4A07080F31188FFF79EFD0F
:102B50004FF0000080F3118808BC19680868B0E8DD
:102B6000F04F1EF0100F08BFB0EC108A80F30988F8
:102B7000704700BFF817002008B5FFF7A3FFFFF765
:102B800037FC18B1044B4FF080521A600020BDE8AA
:102B90000840FFF7BBBF00BF04ED00E0064B4FF459
:102BA0007A721B68B3FBF2F3044A013B1360044BD7
:102BB00007221A60704700BFA000002014E000E068
:102BC00010E000E013B5234B1A78D2B20192FF2235
:102BD0001A701B78204ADBB28DF803309DF8033061
:102BE00003F0400313701D4B07221A6000219DF86B
:102BF0000300000602F1FF3423D401B11A601A6801
:102C0000120202F4E0621A60019B124ADBB21370F6
:102C1000134B1A6842F47C021A601A6842F07C4234
:102C20001A60FFF7BBFF0F4B00221A60FFF714FF7B
:102C30000D4A136843F040431360FFF703FFFFF7AB
:102C400049FF9DF803205200D2B28DF803200121E4
:102C50002246CCE700E400E0842E0020882E0020ED
:102C600020ED00E04400002034EF00E008B5EFF371
:102C700005830F2B08D90A4A9B5C0A4A12789A42AC
:102C800002D9FFF71FFFFEE7074B084A1B681268CF
:102C900003F4E063934202D9FFF714FFFEE708BD97
:102CA000F0E300E0842E00200CED00E0882E0020F0
:102CB000684620F007018D4601B5FEE7684620F022
:102CC00007018D4601B5FEE7684620F007018D46F5
:102CD00001B5FEE7684620F007018D4601B5FEE725
:102CE000684620F007018D4601B5FEE7684620F0F2
:102CF00007018D4601B5FEE7684620F007018D46C5
:102D000001B5BDE80140854670470000684620F0E7
:102D100007018D4679B5134A134B14498B4213D3DF
:102D2000134B144A0021934213D3134E134CA41B8C
:102D3000A4100025A5420FDB04F050F8FDF76AFE51
:102D4000BDE879408546704752F8040F43F8040BFC
:102D5000E4E743F8041BE6E756F8253098470135C9
:102D6000E8E700BF94DB000800000020E80800202E
:102D7000E8080020EC31002084DB000890DB00082C
:102D8000684620F007018D4601B5FFF7B5FFBDE8A5
:102D9000014085467047684620F007018D4601B521
:102DA000FFF7AAFFBDE8014085467047684620F05E
:102DB00007018D4601B5FFF79FFFBDE8014085463D
:102DC0007047684620F007018D4601B5FFF794FF74
:102DD000BDE8014085467047684620F007018D46F2
:102DE00001B5FFF789FFBDE8014085467047684699
:102DF00020F007018D4601B5FFF77EFFBDE80140D9
:102E000085467047684620F007018D4601B5FFF7FB
:102E100073FFBDE8014085467047684620F0070112
:102E20008D4601B5FFF768FFBDE801408546704754
:102E3000684620F007018D4601B5FFF75DFFBDE84C
:102E4000014085467047684620F007018D4601B570
:102E5000FFF752FFBDE8014085467047684620F005
:102E600007018D4601B5FFF747FFBDE801408546E4
:102E70007047684620F007018D4601B5FFF73CFF1B
:102E8000BDE8014085467047684620F007018D4641
:102E900001B5FFF731FFBDE8014085467047684640
:102EA00020F007018D4601B5FFF726FFBDE8014080
:102EB00085467047684620F007018D4601B5FFF74B
:102EC0001BFFBDE8014085467047684620F00701BA
:102ED0008D4601B5FFF710FFBDE8014085467047FC
:102EE000684620F007018D4601B5FFF705FFBDE8F4
:102EF000014085467047684620F007018D4601B5C0
:102F0000FFF7FAFEBDE8014085467047684620F0AD
:102F100007018D4601B5FFF7EFFEBDE8014085468C
:102F20007047684620F007018D4601B5FFF7E4FEC3
:102F3000BDE8014085467047684620F007018D4690
:102F400001B5FFF7D9FEBDE80140854670476846E8
:102F500020F007018D4601B5FFF7CEFEBDE8014028
:102F600085467047684620F007018D4601B5FFF79A
:102F7000C3FEBDE8014085467047684620F0070162
:102F80008D4601B5FFF7B8FEBDE8014085467047A4
:102F9000684620F007018D4601B5FFF7ADFEBDE89C
:102FA000014085467047684620F007018D4601B50F
:102FB000FFF7A2FEBDE8014085467047684620F055
:102FC00007018D4601B5FFF797FEBDE80140854634
:102FD0007047684620F007018D4601B5FFF78CFE6B
:102FE000BDE8014085467047684620F007018D46E0
:102FF00001B5FFF781FEBDE8014085467047684690
:1030000020F007018D4601B5FFF776FEBDE80140CF
:1030100085467047684620F007018D4601B5FFF7E9
:103020006BFEBDE8014085467047684620F0070109
:103030008D4601B5FFF760FEBDE80140854670474B
:10304000684620F007018D4601B5FFF755FEBDE843
:10305000014085467047684620F007018D4601B55E
:10306000FFF74AFEBDE8014085467047684620F0FC
:1030700007018D4601B5FFF73FFEBDE801408546DB
:103080007047684620F007018D4601B5FFF734FE12
:10309000BDE8014085467047684620F007018D462F
:1030A00001B5FFF729FEBDE8014085467047684637
:1030B00020F007018D4601B5FFF71EFEBDE8014077
:1030C00085467047684620F007018D4601B5FFF739
:1030D00013FEBDE8014085467047684620F00701B1
:1030E0008D4601B5FFF708FEBDE8014085467047F3
:1030F000684620F007018D4601B5FFF7FDFDBDE8EC
:10310000014085467047684620F007018D4601B5AD
:10311000FFF7F2FDBDE8014085467047684620F0A4
:1031200007018D4601B5FFF7E7FDBDE80140854683
:103130007047684620F007018D4601B5FFF7DCFDBA
:10314000BDE8014085467047684620F007018D467E
:1031500001B5FFF7D1FDBDE80140854670476846DF
:1031600020F007018D4601B5FFF7C6FDBDE801401F
:1031700085467047684620F007018D4601B5FFF788
:10318000BBFDBDE8014085467047684620F0070159
:103190008D4601B5FFF7B0FDBDE80140854670479B
:1031A000684620F007018D4601B5FFF7A5FDBDE893
:1031B000014085467047684620F007018D4601B5FD
:1031C000FFF79AFDBDE8014085467047684620F04C
:1031D00007018D4601B5FFF78FFDBDE8014085462B
:1031E0007047684620F007018D4601B5FFF784FD62
:1031F000BDE8014085467047684620F007018D46CE
:1032000001B5FFF779FDBDE8014085467047684686
:1032100020F007018D4601B5FFF76EFDBDE80140C6
:1032200085467047684620F007018D4601B5FFF7D7
:1032300063FDBDE8014085467047684620F0070100
:103240008D4601B5FFF758FDBDE801408546704742
:10325000684620F007018D4601B5FFF74DFDBDE83A
:10326000014085467047684620F007018D4601B54C
:10327000FFF742FDBDE8014085467047684620F0F3
:1032800007018D4601B5FFF737FDBDE801408546D2
:103290007047684620F007018D4601B5FFF72CFD09
:1032A000BDE8014085467047684620F007018D461D
:1032B00001B5FFF721FDBDE801408546704768462E
:1032C00020F007018D4601B5FFF716FDBDE801406E
:1032D00085467047684620F007018D4601B5FFF727
:1032E0000BFDBDE8014085467047684620F00701A8
:1032F0008D4601B5FFF700FDBDE8014085467047EA
:10330000684620F007018D4601B5FFF7F5FCBDE8E2
:10331000014085467047684620F007018D4601B59B
:10332000FFF7EAFCBDE8014085467047684620F09B
:1033300007018D4601B5FFF7DFFCBDE8014085467A
:103340007047684620F007018D4601B5FFF7D4FCB1
:10335000BDE8014085467047684620F007018D466C
:1033600001B5FFF7C9FCBDE80140854670476846D6
:1033700020F007018D4601B5FFF7BEFCBDE8014016
:1033800085467047684620F007018D4601B5FFF776
:10339000B3FCBDE8014085467047684620F0070150
:1033A0008D4601B5FFF7A8FCBDE801408546704792
:1033B000684620F007018D4601B5FFF79DFCBDE88A
:1033C000014085467047684620F007018D4601B5EB
:1033D000FFF792FCBDE8014085467047684620F043
:1033E00007018D4601B5FFF787FCBDE80140854622
:1033F0007047684620F007018D4601B5FFF77CFC59
:10340000BDE8014085467047684620F007018D46BB
:1034100001B5FFF771FCBDE801408546704768467D
:1034200020F007018D4601B5FFF766FCBDE80140BD
:1034300085467047684620F007018D4601B5FFF7C5
:103440005BFCBDE8014085467047684620F00701F7
:103450008D4601B5FFF750FCBDE801408546704739
:10346000684620F007018D4601B5FFF745FCBDE831
:10347000014085467047684620F007018D4601B53A
:10348000FFF73AFCBDE8014085467047684620F0EA
:1034900007018D4601B5FFF72FFCBDE801408546C9
:1034A0007047684620F007018D4601B5FFF724FC00
:1034B000BDE8014085467047684620F007018D460B
:1034C00001B5FFF719FCBDE8014085467047684625
:1034D00020F007018D4601B5FFF70EFCBDE8014065
:1034E00085467047684620F007018D4601B5FFF715
:1034F00003FCBDE8014085467047684620F007019F
:103500008D4601B5FFF7F8FBBDE8014085467047E1
:10351000684620F007018D4601B5FFF7EDFBBDE8D9
:10352000014085467047000070B52D4C88B020469C
:1035300001F0E8FE054600284FD12A4A2A4B2B4EBF
:10354000A06084E80C004FF48043E0606061A061FB
:10355000E06120622361336B43F002033363336B1A
:10356000059003F002030193019B21484FF48073FF
:103570000393122304930223069303A904230793BE
:1035800001F0B0FA4FF4007303A91948039301F056
:10359000A9FA336C43F400133364336C03F400135F
:1035A0000293029B336A43F400133362336A23F4B9
:1035B000001333622A4605211F2001F05FF81F2007
:1035C00001F090F82A460521202001F057F820202C
:1035D00001F088F8204601F0BDFC08B070BD00BFC6
:1035E0008C2E002000540040801A06000038024053
:1035F0000004024008B5034801F01FFDBDE8084083
:10360000FFF792BF8C2E002070B503288AB00446C5
:1036100025D8214D55F820300593012306930793B3
:10362000032308931D4B02281A6B23D003282AD0AA
:10363000012816D042F040021A631B6B03F04003CE
:103640000193019B164E05A956F8240001F04AFA91
:10365000012235F8241056F8240001F035FB0AB099
:1036600070BD42F008021A631B6B03F0080302935B
:10367000029BE7E742F008021A631B6B03F00803A2
:103680000393039BDEE742F480621A631B6B03F42F
:1036900080630493049BD5E74C000020003802406F
:1036A0005C000020032808D8044B33F82010044B9A
:1036B000002253F8200001F007BB70474C000020A7
:1036C0005C000020032808D8044B33F82010044B7A
:1036D000012253F8200001F0F7BA70474C00002097
:1036E0005C00002010B5194B1A6B42F001021A63FE
:1036F0001B6B86B003F001030093009B69B90123A3
:10370000019302230493124B0291039153F820007A
:1037100001A901F0E7F906B010BD0129FBD1022390
:1037200004930C4B02930A4B019153F820000024A0
:1037300001A9039401F0D6F922460F21062000F0DA
:103740009DFF062000F0CEFFE5E700BF00380240F5
:10375000480000200000111008B5034B012153F868
:10376000200001F0ABFA08BD48000020FFF7DCBEE6
:1037700010B586B006AC642304F8012D0293012332
:103780000A46019301460094034801F06DFC08B11C
:10379000FFF730FF06B010BD8C2E00207FB506AAC3
:1037A000002302F8013D4FF47A73029301238DE860
:1037B0000C000A460146054801F0C8FC08B1FFF7B5
:1037C00019FF9DF8170007B05DF804FB8C2E002050
:1037D0001FB54FF47A748DE81C000A460123014698
:1037E000044801F0B3FC044608B1FFF703FF20468C
:1037F00004B010BD8C2E002000F020BF70B5154B1A
:10380000154C1A6B42F080021A631B6B86B003F0F2
:1038100080030093009B112380250293002603233D
:1038200001A9204604930195039601F05BF9324605
:103830002946204601F048FA142000F0FFFE01223C
:103840002946204601F040FA0A2000F0F7FE06B0B3
:1038500070BD00BF00380240001C0240014B1868D8
:10386000704700BF6C000020014B1868704700BF14
:1038700070000020014B1860704700BFC82E002068
:10388000012807B503460AD84A780B780848009201
:103890000021152202F09BFB03B05DF804FB0191AF
:1038A0000A5C009200213922014802F0BDFBF3E7D7
:1038B000243100201FB5274B5A6C42F080625A64B5
:1038C0005A6C02F080620192019A5A6A42F0806258
:1038D0005A625A6A22F080625A621A6B42F40002FB
:1038E0001A631A6B02F400020292029A1A6942F4F5
:1038F00000021A611A6922F400021A615A6C42F03D
:1039000000625A645A6C02F000620392039A5A6A87
:1039100042F000625A625A6A22F000625A6203213F
:103920000022582000F0AAFE582000F0DBFE002202
:1039300003215A2000F0A2FE5A2000F0D3FE0022FC
:1039400003215C2000F09AFE5C2000F0CBFE05B065
:103950005DF804FB0038024000B595B04FF4807369
:103960000C930523069300230D930E930B93119351
:1039700012931393009304934FF0807210230F92CD
:10398000029301224FF480030192039205936A4649
:10399000034606A9044801F0F7FF003018BF0120D4
:1039A00015B05DF804FB00BF8031002000B595B074
:1039B0004FF480730C930623069341F28832002360
:1039C00006A915480D930E930F930B931193129321
:1039D000139301F09CFFE0B90223009301930123AC
:1039E0000393102302934FF480030593052306935A
:1039F0004FF0807304900F936A4641F2883306A912
:103A0000054801F0C1FF003018BF012015B05DF876
:103A100004FB0120FAE700BF8031002000B591B01F
:103A20004FF480730893EB2302934FF040724FF4EE
:103A3000406309930B924FF400530A2205930792B7
:103A400000236A4602A907480A930D930E930F9329
:103A5000019301F0E6FF003018BF012011B05DF8BE
:103A600004FB00BF80310020F0B52C4B2C4C9A6B2E
:103A70002C4842F002029A639A6B89B002F002026B
:103A80000092009A9A6942F002029A619A6922F0C1
:103A900002029A611A6B42F002021A631A6B02F078
:103AA00002020192019A1A6B42F020021A631B6B08
:103AB00003F020030293029B402303930223049309
:103AC000012305930A27032303A90693002509264A
:103AD000079701F007F84FF4806303A9204603938A
:103AE0000595079600F0FEFF4FF4407303A92046AA
:103AF0000393079700F0F6FFC02303A92046039322
:103B0000079600F0EFFF2A460F215B2000F0B6FD7C
:103B10005B2000F0E7FD09B0F0BD00BF00380240B7
:103B200000140240000402402DE9F041494C4A4B88
:103B3000236090B0204601F0CEFE074600283ED11B
:103B400001462046FFF790FF012510236560A56020
:103B5000E3604FF0807696FAA6F3B3FA83F3DBB214
:103B6000013B4FF4807820462361C4F81480A7619C
:103B7000E761276201F058FE08BB662309900A90AE
:103B80000B9007900D900E900F9041F2883202A991
:103B90002046CDF82080029301F0B9FE68B9992340
:103BA00041F2883202A92046029301F0B0FE20B90A
:103BB00041F28830FFF7D0FE18B1042546E0012518
:103BC00044E0852309900A9007900D900E900F9085
:103BD00041F2883202A92046CDF8208002930B964C
:103BE0000C9501F094FE0028E7D141F288320DF1E6
:103BF0000701204601F0BEFF0028DED1FFF7D6FE08
:103C000005460028D9D181230293F02393FAA3F328
:103C1000B3FA83F39DF807200A21DBB202F00F020A
:103C200001FA03F3134302A941F2883220468DF8CA
:103C3000073001F06CFE0028BFD141F288320DF14F
:103C40000701204601F044FF0028B6D1284610B0F5
:103C5000BDE8F08180310020001000A02DE9F7437D
:103C6000224C234D01264FF00008102721468146A3
:103C70004FF6FF722846CDF8048084E8C000A660A5
:103C8000C4F80C8002F0D5FF304600F0D7FC0223C8
:103C900021464FF6FF72284684E88800A660C4F8E3
:103CA0000C8002F0C6FF032384E888002146082325
:103CB0004FF6FF722846A360C4F80C8002F0B9FFEB
:103CC0004FF40C730193042384E888004FF6FF72CD
:103CD000019BE36021462846A66002F0AAFF494600
:103CE000284602F0BDFF03B0BDE8F083CC2E0020D3
:103CF000502F002070B506468EB0002800F0B68028
:103D00005B4B5C489A6B42F001029A639A6B02F03B
:103D100001020092009A1A6B42F480021A631A6B35
:103D200002F480020192019A1A6B42F004021A63B3
:103D30001A6B02F004020292029A1A6B42F0080215
:103D40001A631A6B02F008020392039A1A6B42F08C
:103D500010021A631A6B02F010020492049A1A6B92
:103D600042F020021A631A6B02F020020592059AB3
:103D70001A6B42F040021A631A6B02F0400206927C
:103D8000069A1A6B42F080021A631A6B02F08002E4
:103D90000792079A1A6B42F480721A631B6B03F442
:103DA00080730EAC0893089B012344F8143D022253
:103DB00021460A920C920C220D920B9300F092FE77
:103DC0004CF2037321462C48099300F08BFE4FF60A
:103DD000837321462948099300F084FE4FF63F0380
:103DE00021462748099300F07DFE48F2331321460F
:103DF0002448099300F076FE4FF60C7321462248C2
:103E0000099300F06FFE214640F2FF631F4C2048EB
:103E1000099300F067FE8023A3604FF40073E36012
:103E20004FF4806323614FF4805363614FF4804308
:103E3000A3614FF40033002523620323A3622563AB
:103E4000144B3463204623606560E5616562E5627A
:103E5000A66300F0CDFC204600F08AFC38202A46FC
:103E6000052100F00BFC382000F03CFC0EB070BDCA
:103E70000038024000080240000C024000100240DE
:103E80000014024000180240001C0240F82E0020DE
:103E9000002002401064024038B51A4C1A4D1B4BEA
:103EA000236002232B602B616B61AB6120232361B4
:103EB000402363614FF4C073A36104214FF4006396
:103EC0000722236220464FF48053A96000216160DD
:103ED000A160E160E1616362A1626A60EA60FFF78C
:103EE00009FF2046294602F084FE094C38B101231F
:103EF000237040F26950FFF7B1FE207838BD207082
:103F0000F7E700BF502F0020DC2E0020400100A06A
:103F100074000020F8B5114C114D2368074628782D
:103F20000E469847636854209847112813D10D4BCB
:103F30005422B7421C601E460B4B2A7034BF01222C
:103F40000C221A705420A368984733682878DB68DD
:103F500098470020F8BD0320F8BD00BF780000207E
:103F6000842F0020982F00209C2F00202DE9F74F50
:103F7000314F324C3B6880461B6920789847A346F6
:103F800088F8000050B1DFF8BCA008F1020901ACCC
:103F90006D46002698F800309E4203D3002003B0FF
:103FA000BDE8F08F3B689BF800005B69294622461C
:103FB0009847234BDFF890C01A78100741BF2B8831
:103FC000218829802380910741BF2B88C3F547733F
:103FD00003332B80530748BF2388B5F800E048BF60
:103FE000C3F5EF734FEA860144BF013323805AF8CB
:103FF000263051F80C2020889E458CBFAEEB030381
:10400000A3EB0E0390428CBF821A121A9BB292B29B
:104010001A44052AC8BF4AF801E05AF80130C8BF5F
:104020004CF8010029F8023B5CF80130A9F8023095
:10403000013602340235ADE7982F0020842F00208E
:104040009C2F0020882F0020902F002000207047F8
:10405000704710B50446FFF789FBA821E0B2FFF7CF
:104060009DFB10BD13B500240221C0B28DF807409E
:10407000FFF794FB8DF807009DF8073003F00F035E
:104080008DF807309DF80730022B88BF8DF8074068
:10409000044B9DF807209DF807005A7000229A7083
:1040A00002B010BD9F2F002073B5154C1546A378A4
:1040B00062789A420E461FD903B3012B0CBF092127
:1040C000002104230DEB0302C0B2FFF781FB9DF832
:1040D00004309DF805201B0203F470631343338002
:1040E0009DF806309DF807201B0203F4706313430C
:1040F0002B80A3780133A37002B070BD0321E0E7E9
:104100009F2F00200122A421C0B2FFF731BB002263
:10411000A421C0B2FFF72CBBFFF7F9BF7047000026
:10412000084A137898420BD05178884203D17047DF
:1041300031B9012301E0002BFAD1D054FFF716BBAF
:10414000704700BF9D2F002038B504460D46002063
:10415000CB49FFF795FBCB490320FFF791FBCA49F9
:104160000020FFF78DFBC9490220FFF789FBC649F4
:104170000020FFF785FBC6490020FFF781FB0A20DE
:10418000FFF73AFBC3490020FFF77AFBC249002042
:10419000FFF776FB0A20FFF72FFBC0490020FFF74F
:1041A0006FFBBF490020FFF76BFBBE490020FFF704
:1041B00067FBBD490020FFF763FBBC490020FFF708
:1041C0005FFBBB490020FFF75BFBAD490020FFF719
:1041D00057FBB8490020FFF753FBB7490020FFF712
:1041E0004FFBB6490020FFF74BFBB5490020FFF716
:1041F00047FBB4490020FFF743FBB3490020FFF71A
:104200003FFBB2490020FFF73BFBB1490020FFF71D
:1042100037FBA5490020FFF733FB99490020FFF742
:104220002FFBAC490220FFF72BFBAB490020FFF727
:1042300027FBAA490020FFF723FBA9490020FFF72D
:104240001FFBA8490020FFF71BFBA7490020FFF731
:1042500017FBA6490020FFF713FB97490020FFF743
:104260000FFBA3490020FFF70BFB95490020FFF748
:1042700007FBA0490020FFF703FB9F490020FFF741
:10428000FFFA9E490220FFF7FBFA7F490020FFF763
:10429000F7FA9B490620FFF7F3FA9A490020FFF747
:1042A000EFFA99490E20FFF7EBFA98490020FFF743
:1042B000E7FA97490E20FFF7E3FA96490020FFF747
:1042C000DFFA95490A20FFF7DBFA94490020FFF74F
:1042D000D7FA93490020FFF7D3FA6B490020FFF784
:1042E000CFFA90490A20FFF7CBFA8F490020FFF759
:1042F000C7FA8E490F20FFF7C3FA82490020FFF763
:10430000BFFA8B490F20FFF7BBFA80490020FFF767
:10431000B7FA88490A20FFF7B3FA7E490020FFF771
:10432000AFFA85490F20FFF7ABFA7C490020FFF771
:10433000A7FA82490F20FFF7A3FA81490020FFF76F
:104340009FFA80490A20FFF79BFA7F490020FFF778
:1043500097FA7E490A20FFF793FA4B490020FFF7AE
:104360008FFA7B490A20FFF78BFA6F490020FFF78D
:1043700087FA78490F20FFF783FA62490020FFF798
:104380007FFA75490F20FFF77BFA60490020FFF79D
:1043900077FA72490A20FFF773FA5E490020FFF7A7
:1043A0006FFA6F490F20FFF76BFA5C490020FFF7A7
:1043B00067FA6C490F20FFF763FA3F490020FFF7C7
:1043C0005FFA69490020FFF75BFA68490020FFF7B0
:1043D00057FA67490020FFF753FA29490020FFF7F1
:1043E0004FFA64490320FFF74BFA25490020FFF7F5
:1043F00047FA23490020FFF743FA5F491020FFF7EF
:104400003FFA1F490020FFF73BFA5C491020FFF7F5
:1044100037FA00205A49FFF733FA7820FFF7ECF912
:10442000002C00F0C780022C03D156490020FFF772
:1044300027FA012D0BD154490020FFF721FA5349E7
:104440000420FFF71DFA52490420FFF719FA5149D9
:104450000020FFF715FA50490020FFF711FA4F49E5
:104460000020FFF70DFA4E490020FFF709FA4D49E9
:104470000020FFF705FA02490020FFF701FA93E058
:10448000A5C6000807C70008BBC600088DC70008FE
:10449000D1C60008E7C60008FDC60008FFC6000830
:1044A00001C7000803C7000805C70008A7C6000821
:1044B000A9C60008ABC60008ADC60008AFC6000814
:1044C000B1C60008B3C60008B5C60008B7C60008E4
:1044D000B9C600080BC80008BDC60008BFC6000862
:1044E000C1C60008C3C60008C5C60008C7C6000884
:1044F000C9C60008CBC60008CDC600080EC8000813
:1045000011C80008CFC6000818C80008D3C60008A4
:1045100027C80008D5C600080BC70008D7C6000882
:10452000F5C6000816C70008D9C6000821C700084C
:1045300031C7000841C700084CC700085CC7000825
:10454000DBC600086CC70008DDC6000877C7000896
:1045500082C7000890C70008A0C70008B0C70008BD
:10456000BBC70008CBC70008F7C60008F9C600089B
:10457000FBC60008DBC70008E9C70008FAC7000847
:10458000DFC60008E1C60008E5C60008DFC700086E
:10459000E4C70008E9C60008EBC60008EDC600083D
:1045A000EFC60008F1C6000804490020FFF768F9CB
:1045B000002038BD0249204639E700BFF3C6000895
:1045C000E3C60008704710B5044601F00FFF4FF432
:1045D0007A73B0FBF3F000F09FF8002221464FF011
:1045E000FF3000F04BF8002010BD000008B50B4B69
:1045F0001A6842F400721A601A6842F480621A6003
:104600001A6842F480721A60032000F025F8012035
:10461000FFF7D9FFFFF7D6FF002008BD003C02409E
:10462000024A136801331360704700BFA42F0020B3
:10463000014B1868704700BFA42F002013B50190EC
:10464000FFF7F6FF0446FFF7F3FF019B001B9842BC
:10465000F9D302B010BD0000074AD36823F4E06329
:104660001B041B0C43F0BF63000243F4003300F44F
:10467000E0600343D360704700ED00E030B5174BB6
:10468000DC68C4F30224C4F10703251D042B28BFF2
:104690000423062D4FF0010505FA03F303F1FF3360
:1046A0008CBF033C00241940A14005FA04F4013CEE
:1046B0002240002842EA01024FEA0212AFBF00F195
:1046C000604000F00F00064BD2B2A5BF00F561407C
:1046D000D2B21A5480F8002330BD00BF00ED00E0D4
:1046E00014ED00E04209012300F01F0003FA00F07E
:1046F000014B43F82200704700E100E0430901222A
:1047000000F01F0002FA00F02033024A42F82300B2
:10471000704700BF00E100E00138B0F1807F0AD2AD
:10472000064B074A5860F02182F823100020072228
:1047300098601A6070470120704700BF10E000E0E9
:1047400000ED00E00368DAB223F47F7323F0030383
:104750001821103AB2FBF1F20449032A88BF04334E
:10476000895C03654165006D704700BF36C800086D
:1047700038B50446002837D0022380F83530416A26
:1047800000681A4D036862681D40A3681343E2681D
:1047900013432269134362691343A2691343E26915
:1047A0001343226A042908BF216B43EA020308BFAE
:1047B000E26A43EA050304BF0A4313430360226825
:1047C000616A5369042923F0070343EA010304BF24
:1047D000A16A0B4353612046FFF7B4FF0020012379
:1047E000E06484F8353038BD012038BD3F8010F0DA
:1047F00038B5054618B390F83530022B1FD0026843
:10480000136823F001031360036800241C6003682D
:104810005C6003689C600368DC6003681C6103687B
:1048200021225A61FFF78EFF6A6D3F239340836018
:10483000EC6485F8344085F83540204638BD0120C9
:1048400038BD70B5049C056844EA03436B64036893
:10485000DA6343680268B3F5403F30D186681EB121
:10486000012E03D121F07F41916370BD022E01F42E
:104870007F0301F47F45CCB207D1D90CAD0AC90240
:1048800041EA451141EAD401EEE7032E01F07F40F1
:104890000AD1DB0CED0A9B0243EA451343EAD40339
:1048A000C10F43EAC131DFE7190D2D0B090241EABF
:1048B000051141EA1411030F41EA0331D4E7D16035
:1048C00070BD704710B5044640B390F8393003F01E
:1048D000FF021BB980F83820FFF7F3FF22686168F8
:1048E000022384F83930136823F440330B431360F8
:1048F0002268A168536B23F007030B4353632268BC
:10490000E168136C23F47F5323F03F030B431364DC
:1049100000200123E06384F8393010BD012010BD70
:10492000704710B5044640B1FFF7FAFF0020E0637E
:1049300084F8380084F8390010BD012010BD73B52B
:1049400090F83850012D04464FF0020524D001267E
:1049500080F83860066880F83950356825F0010520
:104960003560069D0095FFF76CFF2268136843F4DD
:10497000007313602268136843F480731360226825
:10498000136843F0010313602268136843F4005373
:104990001360002002B070BD2846FBE773B51646D1
:1049A0001A4690F83830012B04464FF0020327D006
:1049B000012580F83850056880F839302B6823F0DD
:1049C00001032B6003685E61079B0093069BFFF762
:1049D00038FF2268136843F4005313602268136899
:1049E00043F4007313602268136843F48073136008
:1049F0002268136843F001031360002002B070BD09
:104A00001846FBE7F0B590F83830012B4FF0020361
:104A100030D0012280F8382080F839300468304ADC
:104A200051BB636AC169056A1A40A1F10903012BF0
:104A3000436A94BF03F07F431B0643EA05430B43DD
:104A40001343636202688169936923F47F5323F0FF
:104A50003F030B439361C369093B012B04D8436AAD
:104A6000026823F07F439362012380F839300023EA
:104A700080F838301846F0BD0D014719E669D7F8BF
:104A80001CE0AEF10903012B06EA02061FD87A6A80
:104A90003B6A02F07F4242EA034242EA0E021643B8
:104AA000E661046842192369956923F47F5323F072
:104AB0003F032B432361D369093B012BD4D800EB7F
:104AC000011102684B6A23F07F431362CCE77B6AD3
:104AD0003A6A1B0643EA024343EA0E031E43DFE73A
:104AE000F0FFFC002DE9F74F6E4ADFF8C4B1DFF8A4
:104AF000C4A1DFF8C4E100234FF0010C0C680CFAEC
:104B000003FC0CEA0404A44540F0B3804D6825F092
:104B10001005022D14D14FEAD30800EB880803F0EA
:104B20000709D8F820504FEA89090F2606FA09F636
:104B300025EA06060D6905FA09F53543C8F820503F
:104B40004FEA43084D6806684FF0030909FA08F96F
:104B50006FEA090905F0030506EA090605FA08F5F2
:104B6000354305604E6826F01006013E012E11D82F
:104B70008568CE6809EA050506FA08F62E438660C0
:104B8000456825EA0C0C4D68C5F300159D4045EAC3
:104B90000C054560C56809EA05098D6805FA08F540
:104BA00045EA0905C5604D68ED0062D53E4D3E4EB3
:104BB0006D6C45F480457564756C23F0030606F151
:104BC000804605F4804506F59C36019503F0030CFC
:104BD000019DD6F808904FF00F084FEA8C0C08FAA8
:104BE0000CF529EA0508314DA84249D005F5806544
:104BF000A84247D005F58065A84245D0584545D024
:104C0000504545D0704545D005F58055A84243D064
:104C100005F58065A84241D005F58065A8423FD0E2
:104C200005F58065A8420CBF09250A2505FA0CF593
:104C300045EA0805B5604F681568E643FF034CBFB9
:104C40002543354015604F685568BF034CBF254369
:104C5000354055604F689568FF024CBF254335408D
:104C600095604F68D568BF0254BF06EA05042C431F
:104C7000D4600133102B7FF43FAF03B0BDE8F08F59
:104C80000025D3E70125D1E70225CFE70325CDE7AE
:104C90000425CBE70525C9E70625C7E70725C5E7AE
:104CA0000825C3E7003C01400038024000000240F4
:104CB000000C024000100240001402400369194237
:104CC00014BF0120002070470AB1816170470904B8
:104CD000FBE72DE9F0410D4604461646FFF7A8FC18
:104CE000C5F307480746ADB22368B8F1010F0CBF02
:104CF0005A699A6935EA020214BF0120002008B9F6
:104D0000BDE8F0815A69520511D51A6842F4007263
:104D10001A6023686FF480625A610423A363012040
:104D2000002384F8350084F83430BDE8F081731C2A
:104D3000DAD046B9012384F83530002384F83430C2
:104D40000320BDE8F081FFF773FCC01B8642CBD285
:104D5000F0E72DE9F0410C46064615461F46FFF7E1
:104D600067FC8046200CA4B215B3C5B22CE07A1CB7
:104D70000FD047B9012386F83530002386F8343048
:104D80000320BDE8F081FFF753FCA0EB0800874249
:104D9000F0D33368012D0CBF5B699B6934EA0303D0
:104DA00014BF01230023002BE1D10020BDE8F081D6
:104DB000C5B2EEE77B1C07D0002FDBD0FFF738FC35
:104DC000A0EB08008742D5D33368012D0CBF5B6987
:104DD0009B6934EA03030CBF01230023002BE9D1B4
:104DE000E3E70000F7B5154602681F46136843F471
:104DF000807313600E46089B00224FF00111044699
:104E0000FFF7A7FF68B92368089A184906F0FE065D
:104E10001E612046FFF75DFF024628B1A36B042BFD
:104E200021D0032003B0F0BD2368596901919B692B
:104E30000193019B0E49089B2046FFF78AFF00283B
:104E4000EFD1012F236802D1EDB21D61EAE72A0AF2
:104E50001A610749089B02462046FFF77AFF00289F
:104E6000DFD12368F0E70120DCE700BF020001008A
:104E700080000100F7B5154602681F46136843F429
:104E8000806313600268136843F4807313600E46F6
:104E9000089B00224FF001110446FFF75AFF88B922
:104EA00023682949F6B206F0FE021A612046089AE4
:104EB000FFF70FFF024638B1A36B042B02D101208C
:104EC00003B0F0BD0320FBE72368596901919B699A
:104ED0000193019B1D49089B2046FFF73AFF0246BC
:104EE0000028EFD1012F236823D1EDB21D610022EC
:104EF000089B16492046FFF72CFF02460028E1D107
:104F000021680B6843F480730B602046089B4FF0C8
:104F10000111FFF71EFF0028D4D12368089A0A491F
:104F200046F001061E612046FFF7D3FE0028C3D1DC
:104F3000C6E7290A19612046089B0449FFF709FFC3
:104F40000028BFD12368D0E70200010080000100E3
:104F50007047000038B50446002867D090F8353017
:104F600003F0FF021BB980F83420FFF7F1FF22683D
:104F7000022384F83530136823F00103136001F035
:104F800051FA23682A4AB0FBF2F25A6094E82200F0
:104F9000284B9D4285BF4FF496735343531C4FF4E7
:104FA0007A7284BFB3FBF2F301330B6294E80A0018
:104FB000204A934222D85B00B0FBF3F0C0F30B030E
:104FC000032B98BF0420C861216AE36922680B4360
:104FD0001360E168236922680B4393606369A169E8
:104FE00022680B43D3602268136843F00103136007
:104FF00000200123A06384F8353038BDA2684AB987
:1050000003EB4303B0FBF3F0C0F30B0363B140F4D5
:105010000040D8E719225343B0FBF3F0C0F30B0371
:1050200013B140F44040CEE70120CCE7012038BD69
:1050300040420F00A0860100704710B5044680B1C1
:105040000268022380F83530136823F001031360EF
:10505000FFF7F2FF0020A06384F8340084F83500E5
:1050600010BD012010BD00002DE9F74F90F835402C
:105070000C9FBDF83460E4B2012C05468946924687
:105080009B4603D0022003B0BDE8F08F37B32EB3A8
:1050900042F2107322462B49FFF75BFE8046002840
:1050A000F0D195F83430012BECD02A6885F83440E3
:1050B000136823F400631360322385F835300E9BA8
:1050C000A863009352465B4649462846FFF78AFE8E
:1050D00030B1AB6B85F83480042B09D12046D2E780
:1050E000194C0E9B002221462846FFF732FE08B1DC
:1050F0000320C8E72B683A781A612A685169731E41
:1051000049079BB204D401371E46002EE9D100E0C6
:1051100093B90E9B0C4900222846FFF71AFE00287F
:10512000E6D12A68136843F400731360012385F8FD
:10513000353085F83400A6E77B781361023EB6B2BD
:105140000237E2E702001000800001002DE9F04F75
:1051500090F8357089B0FFB2012F04460391924652
:105160009B46129EBDF84C50DDF8508005D04FF0A4
:10517000020A504609B0BDE8F08F3EB335B342F2A3
:1051800010733A465C49FFF7E4FD81460028EED1F2
:1051900094F83430012BEAD0226884F83470136814
:1051A000039923F400631360422384F83530524698
:1051B000A063CDF800805B462046FFF75BFE824689
:1051C00030B1A36B84F83490042B1AD1BA46D0E7DF
:1051D000012D236818D11A68484922F480621A60A8
:1051E00023685A6905929A690592059A1A6842F4E9
:1051F00000721A60024643462046FFF7AAFD0028C7
:1052000049D04FF0030AB4E7022D22D11A6822F4E4
:1052100080621A602268136843F400631360236895
:105220005A6906929B690693069B354943460022BC
:105230002046FFF78EFD0028E3D12268136843F46F
:105240000073136023681B69337023681B697370D4
:1052500024E05A6907929B690793079B274F032D08
:1052600023D94346002239462046FFF772FD002825
:10527000C7D123681B693370226853695B0759BF24
:10528000731C05F1FF35B31C126944BF7270023DF7
:10529000ADB21E46E3E723681B693370012384F82F
:1052A0003530002384F8343063E7022DBDD000226E
:1052B000434613492046FFF74CFD02460028A0D183
:1052C00021680B6823F480630B6023680C491B6919
:1052D000337020464346FFF73CFD002891D12268F9
:1052E000136843F40073136023681B6973702368A9
:1052F0001B69B370D2E700BF02001000400001003C
:105300000400010090F835007047F0B504684D685E
:10531000E368D20184321444C3F30B431D44636831
:1053200003F47043636003680C689E18DB68013403
:10533000C3F30B43234443EA054373600568CC6819
:10534000EB68C3F30A031C44AB189D6805F4704571
:105350009D600368DD689E188B68C5F30A050133FC
:105360002B4443EA0443B3600368134400251C69DB
:1053700024F007041C6103680C6913441C61046871
:1053800091F8326091F83170D1F818E01444A369B3
:10539000A561046891F8303043EA0E63144443EA8F
:1053A000072343EA0643A361036813445C6924F0BE
:1053B000FF045C6103684C6913445C610468144435
:1053C000E36923F4E06323F00703E3610368CC6936
:1053D0000E6A13443443DC61036813449C6A9D6283
:1053E00003684C6A13449C620B69002B2CD0012B80
:1053F0002CD09C1E022C2BD9072B14BF0124022475
:1054000003681344DD6A05F0E025DD6203680E6879
:105410009D184B689B1B8E6A63430333744343EAB6
:105420000443EB6204681444236B23F4FF6323F00A
:10543000070323630368C96A1344196301688B581F
:1054400043F001038B50F0BD0424D9E70324D7E7D0
:105450000224D5E77047000038B50446002875D00F
:1054600090F8A13003F0FF021BB980F8A020FFF7ED
:10547000F1FF2268022384F8A130936923F070437E
:105480009361A068636822680343E06891690343FD
:10549000206903430B43936121682D4A8B681340B5
:1054A0008B60216860698B6843EA0043A06903430D
:1054B0008B602168CB681340CB602168E069CB68C2
:1054C00043EA0043206A0343CB6021680B69134021
:1054D0000B6121680B69606A43EA0043A06A0343D9
:1054E0000B6121684B691A404A612268E16A53697D
:1054F00043EA0143216B0B435361216894F8360062
:10550000CA6A94F8355002F07F42CA62226894F861
:105510003430D16A0B4343EA052343EA0043D362A4
:105520002268536B43F0040353632268536B43F0C8
:10553000020353632268936943F0010393610020DF
:105540000123C4F8A40084F8A13038BD012038BD7F
:1055500000F800F0704710B50446FFF7FBFF00208D
:10556000C4F8A40084F8A00084F8A10010BDF8B528
:1055700090F8A030012B06468E4694464FF002006C
:105580001DD0012786F8A07086F8A10034240D46AE
:1055900004FB02640FCD38340FC40FCD0FC40FCD00
:1055A0000FC42B682360304662467146FFF7ADFE9C
:1055B000336800205F6286F8A17086F8A000F8BD0D
:1055C00030B590F8A030012B4FF0020331D0012408
:1055D00080F8A040342404FB020480F8A130A46CBD
:1055E0004CB3012C29D0A51E9D4202D9072C18BF0F
:1055F00001230568D201843215445943EC6A24F032
:10560000FF5424F4F814EC620D4C656A45F0010572
:10561000656205682A44D56A45EA0141D162636A38
:1056200043F001036362012380F8A130002380F876
:10563000A030184630BD0423DBE70323D9E700BFC1
:10564000006801404B6A2DE9F0473BB1B2F1406F71
:105650001FBF8B6A046803F1FF3323618B690C6AF7
:10566000002B6ED00568002C38D08B68EB61CC69BC
:105670004B6A05688F69D1F820E0D1F82CA0D1F8E9
:105680003090D1F83480D1F810C00E68A4B144EA4B
:105690000A04144344EA090444EA0804234343EA9D
:1056A0000C03CC6843EA0E0323433B4333434C696A
:1056B00043EA84436B612DE04AEA0904144344EA57
:1056C0000804234343EA0C0343EA0E033B433343FA
:1056D0004E6943EA86466E61BDE8F087CC69D1F831
:1056E00024E0D1F82C90D1F83080D1F834C00F6884
:1056F0004E69BCB11C43144344EA090444EA08045B
:10570000CB6844EA0C0444EA0E041C433C4344EADC
:1057100086446C61B2F1406F5AD003684A689A615E
:10572000BDE8F08743EA0903134343EA080343EA69
:105730000C0343EA0E033B4343EA86436B61BDE837
:10574000F0874CB303688C68DC61CC69D1F82480A5
:1057500005688E69D1F820E0CF6AD1F830904B6BA4
:10576000D1F810C06CB13C43144344EA090423430C
:1057700043EA080343EA0C03CC6843EA0E032343DD
:1057800094E747EA09042243134343EA080343EA40
:105790000C0343EA0E039AE7CC694E6A5CB1CB6A0C
:1057A000056823430C6B134323434C6B2343CC68A2
:1057B000334323437BE75EB1CB6A00683343134333
:1057C0000A6B13434A6B13434A6943EA82434361BA
:1057D000BDE8F0872DE9F04104460F4616461D4608
:1057E000FEF726FF8046226893683B4214BF0123E0
:1057F0000023B34202D10020BDE8F0816B1CF3D03E
:105800004DB9042384F83930E36B43F00103E363BB
:105810000320BDE8F081FEF70BFFA0EB08008542F6
:10582000E1D2EEE77047000038B5044600284BD0BF
:1058300090F83830012B49D0012380F8383090F8A7
:10584000393003F0FF0233B980F83820FFF7EAFF60
:1058500041F2883323642168A2680B68013A23F47B
:10586000706343EA02230B60236C00222021204650
:10587000FFF7B0FF20BBE569E36821682B43256A89
:105880000A682B43656822F07F4243EA056322F0F1
:10589000D00213430B60A269636921681343226934
:1058A0004D6843EA02430A4A2A4013434B60226888
:1058B000136843F0010313600123E06384F8393077
:1058C000002384F8383038BD012038BD022038BDAF
:1058D000FEF8E0FF704710B50446A0B190F83830EC
:1058E000012B12D00268012380F83830136823F0AE
:1058F00001031360FFF7EEFF0020E06384F8390036
:1059000084F8380010BD012010BD022010BD2DE923
:10591000F84390F83830012B04468946904631D040
:10592000012380F8383090F83960F6B29E424FF08B
:10593000020723D10022C263434680F83970202138
:10594000FFF748FF054698B9024649462046FFF74B
:1059500079FED9F824304BB94346324639462046C1
:10596000FFF738FF054658B92368DF6084F83960CF
:10597000002384F838302846BDE8F8833D46F7E731
:105980000325F5E70225F6E72DE9F041164690F8E4
:105990003820012A04460F4698463FD0012280F85D
:1059A000382090F83950EDB2954233D1422100228F
:1059B000C26380F839102021FFF70CFF28BB236851
:1059C00032689A62236872685A622368B268DA623F
:1059D000216833690A6843F4800322F440021343C8
:1059E0000B60F368BB624FF0006239462046FFF758
:1059F00029FE43462A4608212046FFF7EBFE58B908
:105A000023680822DA6084F83950002384F838309B
:105A1000BDE8F0810220F8E70320F6E70220BDE8A8
:105A2000F081F8B590F83830012B04460E46174641
:105A300030D0012380F8383090F83930012B27D14D
:105A400000228223C263202180F83930036CFFF7E3
:105A5000C1FE0546B8B922687968136823F00803C7
:105A60000B4313607B68082B07D123683A681A63DD
:105A70002268136843F4801313604FF0406231468C
:105A80002046FFF7DFFD002384F838302846F8BDB4
:105A90000225F8E70225F9E710B50268136843F01C
:105AA00002031360036C012202210446FFF792FEF9
:105AB000024658B923680221D960236C2021204670
:105AC000FFF788FE012384F8393010BD032010BD94
:105AD00070B590F83830012B0446164648D00123A3
